:04000000803119280A
:100008007E14803120007F08F0000B110130B0070A
:100018000030B13D301C132820000C141528200096
:100028000C107008FF007E10090080311B28C030BA
:1000380084008330850060308600003087000830F7
:100048008331C8238031FC012030840000308500D2
:100058002B308331CE237E1020008131972907343D
:100068000234013400340134C934C33480340634D2
:1000780011340134023400340134C83408341134E2
:100088000234043400340834063404340A340534A1
:1000980011342434013403345234723466349634BF
:1000A8007034AC3457349F348C3466347F34A43481
:1000B800DB342D342034F1345534063447347D3460
:1000C80093344F34243442349C34AF34C9349F348D
:1000D8007C346934D8345E343E346A34D2346F3474
:1000E8008C34B2342734D7340734BC34F334563420
:1000F800D43424340534F234EB34B2347E346934E5
:100108007F34D4346534C934553436344A34FB34F6
:1001180052345D3469344F349934C134D2345F3445
:10012800D634EF34C534F83487340F349334E2349A
:10013800073477340E3410342B34B3343934343430
:100148002A346634203420340D344C342634843434
:10015800E934E734F5347234BA3479342C344C3415
:10016800ED348634B3349834D3349F343B34273455
:10017800BC340A34193418348534853405341634BB
:10018800013400347034663467344E34F63409343C
:1001980065349234B9340C348F342C349A3438346E
:1001A800C5340A347734CF3480340534DC34283409
:1001B800DA340F34BE347E34BE34C63498341A343C
:1001C8001F342E3424349D34B734F23472346834F6
:1001D8001A340434F23433344D3428347B341E3426
:1001E80056349E341934D334843475342B343F3424
:1001F800C6343D3475344134BC342634FC34283498
:10020800FC34D6345F34CB347334B2342A34A1345A
:10021800383477340034C3341634D9343E34A034F7
:10022800433461346534EF343D34CE34803456344D
:10023800F934CF34183405344934833407348234DC
:100248004534F6340734B234BC344C348A3466341A
:100258006F341B349E34EF34243497340A34B0346A
:100268009E34CF3449340334193448345334083471
:100278001334003400340034003400340034603463
:1002880000342000DB01DC012000580884005908F4
:10029800850012000319952958088400590885001B
:1002A8000008DA005A08DC000130D8070030D93DD0
:1002B80011305C02031C622904300800DB015C0871
:1002C8005B0203187C295808840059088500000837
:1002D800DA005B08343E860087015A088100013045
:1002E800D8070030D93D0130DA005A08DB07632906
:1002F8003430DA005A08CD00CE01CF015C088331D2
:1003080056238131003A031D8B2902300800200052
:100318008C194829D201D30100308131E121813182
:100328004829003008008331A923813183316923AA
:10033800813164302000DD005D08DF005F080319AB
:10034800AA290130DF025F08031DA529DE015E0826
:10035800031DBC298C12443083319C2381318331A5
:10036800B52381312000DD005D08DE008C16AB2945
:10037800BC298231FB22813100308231E022813177
:10038800023082318222813102302000DD005D0896
:10039800B200DF2983312B2381312000B201B20A58
:1003A800DF29003A0319BD29013A0319C029033A84
:1003B8000319CE29D229803119282000D7002030EE
:1003C800D4005408B4005708D4005408B5005208A3
:1003D800D4005408B6005308D4005408B700343089
:1003E800D4005408CD000830D5005508CE0034306C
:1003F800D6005608CF000430833156232000340835
:10040800D4005408A0003508D4005408A1003608C8
:10041800D4005408A2003708D4005408A3003808B0
:10042800D4005408A4003908D4005408A5003A0898
:10043800D4005408A6003B08D4005408A7000800BC
:10044800F8008830F9001330FA00302A20008C16A2
:100458000130F9020030FA3B79087A040319502A6E
:1004680020008C12443083319C2382318331B523A0
:100478008231F7007708FC007C0803192A2A7808DB
:1004880003194E2A7608F7007708F30078088331B5
:100498004223823120008C1679087A04031D562ADB
:1004A800003008007C0808002000D4003230D30057
:1004B8005308B4005408D3005308B5004D08D300BE
:1004C8005308B6004F08D3005308B7004E08D300AE
:1004D8005308B8005008D3005308B9005108D30096
:1004E8005308BA005208D3005308BB003430D30075
:1004F8005308FB0008308231C32208002000D500D1
:100508001530D2005208B4005508D2005208B50080
:100518003430D2005208CD000230D3005308CE0048
:100528003430D4005408CF000230833156232000E1
:100538003408D2005208A0003508D2005208A100A1
:1005480008002000CE004B08031DAE2AB12A8331D3
:10055800D42382317C080319AB2A20008C124E0860
:1005680083319C23823120004D08FB007B08F30077
:100578004C088331422320008C16FC01080020001F
:10058800CC004C03031DCC2A0130CB004B08CC0710
:100598007C08031DD32A8331D4238231CC2A20003E
:1005A8008C127B08CB004B08F3004C0883317B236B
:1005B80020008C16FC0108002000DA00D201D301CB
:1005C80000308131E12182312000CD010030CE00A0
:1005D800CF000830D8005808D000D101D10A08301F
:1005E800D9005908D2005A088231582208008331AC
:1005F800132382312000600886008701403FD8001D
:10060800413FD900813145218231003A031DFB2A3F
:100618002000D201D30100308131E12108002000FF
:10062800CB01CC0100304C02323003194B020318C5
:10063800282B0130CB070030CC3D00304C02323043
:1006480003194B02031C1D2B8331D42308002000FF
:100658008C19402BD201D30100308131E121833143
:100668002000221E402B4430D8005808CF00073005
:1006780083318D230130080000300800F500013077
:10068800F502750A031908008331B5238331F40094
:10069800730886008701740881000130F40074082B
:1006A800F307432B2000D1004D08D0005008FB0071
:1006B80051088231C322833120004F08D0005008EE
:1006C800F6004E08823124220800240095122200E8
:1006D8001D179D122400941314131512151095104C
:1006E8001511951121009115240095160800F500A3
:1006F8000130F502750A031908007308860087019E
:10070800010883319C2383310130F4007408F30716
:100718007C2B2000D200CB015208D0005008CC001E
:100728004F08D1005108CD0077308231A52208004A
:10073800F2007208240091002000911DA02B2400D3
:100748001108F1007108F200080023008C01CC3078
:1007580021008C00223020008C008C140C108C1688
:100768000800F20124009101141CB82B1108F100B3
:100778007108F200720808006134333480340034A0
:10078800073403340034F034FE0012001E00FE0B60
:10079800C92B0034640080010131890BCF2B003450
:0A07A800F60100308231242208001F
:020000040001F9
:04000E00E4FFFFDF2D
:00000001FF
