:04000000803119280A
:100008007E14803120007F08F0000B110130B0070A
:100018000030B13D301C132820000C141528200096
:100028000C107008FF007E10090080311B289F30DB
:100038008400833085005E308600003087000830F9
:100048008331A7238031FC012030840000308500F3
:100058002B308331AD237E10200082313F2A0734B4
:100068000234013400340134C934C33480340634D2
:1000780011340134023400340134C83408341134E2
:100088000234043400340834063404340A340534A1
:1000980011342434013403345234723466349634BF
:1000A8007034AC3457349F348C3466347F34A43481
:1000B800DB342D342034F1345534063447347D3460
:1000C80093344F34243442349C34AF34C9349F348D
:1000D8007C346934D8345E343E346A34D2346F3474
:1000E8008C34B2342734D7340734BC34F334563420
:1000F800D43424340534F234EB34B2347E346934E5
:100108007F34D4346534C934553436344A34FB34F6
:1001180052345D3469344F349934C134D2345F3445
:10012800D634EF34C534F83487340F349334E2349A
:10013800073477340E3410342B34B3343934343430
:100148002A346634203420340D344C342634843434
:10015800E934E734F5347234BA3479342C344C3415
:10016800ED348634B3349834D3349F343B34273455
:10017800BC340A34193418348534853405341634BB
:10018800013400347034663467344E34F63409343C
:1001980065349234B9340C348F342C349A3438346E
:1001A800C5340A347734CF3480340534DC34283409
:1001B800DA340F34BE347E34BE34C63498341A343C
:1001C8001F342E3424349D34B734F23472346834F6
:1001D8001A340434F23433344D3428347B341E3426
:1001E80056349E341934D334843475342B343F3424
:1001F800C6343D3475344134BC342634FC34283498
:10020800FC34D6345F34CB347334B2342A34A1345A
:10021800383477340034C3341634D9343E34A034F7
:10022800433461346534EF343D34CE34803456344D
:10023800F934CF34183405344934833407348234DC
:100248004534F6340734B234BC344C348A3466341A
:100258006F341B349E34EF34243497340A34B0346A
:100268009E34CF3449340334193448345334083471
:100278001334003400340034003400340034603463
:1002880000342000DB01DC0158088400590885008F
:100298001200031999295808840059088500000894
:1002A800DA005A08DC000130D8070030D93D113097
:1002B8005C02031C612904300800DB015C085B0256
:1002C80003187B2958088400590885000008DA00BB
:1002D8005B08343E860087015A0881000130D80740
:1002E8000030D93D0130DA005A08DB076229343082
:1002F800DA005A08CD00CE01CF015C0883314323D0
:100308008131FF3A03198A290230080020008C192C
:100318004829D201D301003081319B21813120004D
:100328002608031948290430080000300800200076
:10033800D7002030D4005408B4005708D40054081B
:10034800B5005208D4005408B6005308D400540825
:10035800B7003430D4005408CD000830D500550813
:10036800CE003430D6005608CF0004308331432302
:1003780020003408D4005408A0003508D4005408DC
:10038800A1003608D4005408A2003708D400540845
:10039800A3003808D4005408A4003908D40054082D
:1003A800A5003A08D4005408A6003B08D400540815
:1003B800A7000800F8008830F9001330FA00EA298D
:1003C80020008C160130F9020030FA3B79087A04D3
:1003D80003190A2A20008C12443083318623813184
:1003E800833193238131F7007708FC007C080319D7
:1003F800E42978080319082A7608F7007708F30033
:10040800780883312F23813120008C1679087A04EB
:1004180003190D2A7C080319132AFC01FC0A7C081D
:1004280008002000D4003230D3005308B400540828
:10043800D3005308B5004D08D3005308B6004F0841
:10044800D3005308B7004E08D3005308B80050082B
:10045800D3005308B9005108D3005308BA00520812
:10046800D3005308BB003430D3005308FB000830D6
:100478008231C82208008331682382315A2A8331A5
:100488000023823100308231E5228231023082310C
:100498006722823102302000DD005D08B2005A2A4E
:1004A8008331182382312000B201B20A20003208B9
:1004B800003A0319432A013A0319462A033A031951
:1004C800542A582A5A2A2000D5001530D20052083A
:1004D800B4005508D2005208B5003430D200520892
:1004E800CD000230D3005308CE003430D400540875
:1004F800CF0002308331432320003408D200520851
:10050800A0003508D2005208A10008002000CD0143
:10051800CE018331B823823120005E08053E860073
:100528008701403FCB00413FCC004C084E02031DE1
:100538009F2A4B084D020318A72A01302000CD0737
:100548000030CE3D902A8331B32308002000CE002E
:100558004B08031DB32AB62A8331B32382317C08A2
:100568000319B02A20008C124E0883318623823169
:1005780020004D08FB007B08F3004C0883312F2333
:1005880020008C16FC0108002000CC004C03031D41
:10059800D12A0130CB004B08CC077C08031DD82A90
:1005A8008331B3238231D12A20008C127B08CB00FF
:1005B8004B08F3004C088331562320008C16FC01AD
:1005C80008002000DA00D201D301003081319B21DC
:1005D80082312000CD010030CE00CF000830D80095
:1005E8005808D000D101D10A0830D9005908D200E2
:1005F8005A0882311522080082318A22833120006C
:100608005E0886008701403FD800413FD90081310C
:1006180045218331003A031D002B2000D201D3016C
:10062800003081319B21080020008C192D2BD2012C
:10063800D301003081319B2183312000221E2D2BD4
:100648004430D8005808CF00073083317723013071
:10065800080000300800F5000130F502750A03199A
:100668000800833193238331F400730886008701DF
:10067800740881000130F4007408F307302B20005F
:10068800D1004D08D0005008FB0051088231C82223
:10069800833120004F08D0005008F6004E08813101
:1006A800DE210800F5000130F502750A031908007B
:1006B800730886008701010883318623833101305E
:1006C800F4007408F307572B2400951222001D1715
:1006D8009D1224009413141315121510951015115A
:1006E8009511951608002000D200CB015208D000C1
:1006F8005008CC004F08D1005108CD007730823126
:10070800AA220800F2007208240091002000911D1E
:100718008A2B24001108F1007108F2000800240057
:1007280091012000911D952B24001108F1007108FA
:10073800F200720808005F34333480340034073420
:1007480003340034F034FE0012001E00FE0BA82B08
:100758000034640080010131890BAE2B0034F601AE
:0A07680000308131DE210800080096
:020000040001F9
:04000E00E4FFFFFF0D
:00000001FF
