:0400000080311A2809
:100008007E14803120007F08F0000B11013022009F
:10001800B0070030B13D301C142820000C141628FD
:1000280020000C107008FF007E10090080311C2889
:1000380042308400843085003C30860001308700DF
:10004800083084314A248031FC016030840000305B
:1000580085001030843150248031203084000130F4
:1000680085001C30843150247E1020008231842A7F
:1000780007340234013400340134C934C3348034C1
:100088000534113401340134003400340834113497
:100098000234043400340834063404340A34053491
:1000A8001134243401340334523472346634A7349E
:1000B800D5347134443434341A34EB34263455345A
:1000C8002E3435344434F53410348634D634173469
:1000D800803456341434BD343D346E348534BE34E3
:1000E8001834FB34E93498340F345734FC340C3466
:1000F8002134193435344E340434F734E0348E3432
:100108007E341F34F7345634CF34BC348834093441
:1001180001349A34C534AD34C1341F34E734F7346C
:100128007C349B341934F7342034C83437347B3466
:10013800FE346634063444348934A6344B34C4342B
:100148000534A034F034E6346B3413345334823439
:10015800EE3445347434173441345934F634153494
:100168006334EF34C1341D340B34BE345D34DA34B7
:1001780010343A344534AF343E349634A4344634DB
:10018800B334683477344334283455346534BF3451
:1001980001340034703466349834913496344B34D6
:1001A800DC34053435348C3466344A34BF34BB34DB
:1001B8001134D0347D342C34F9345F34153441345F
:1001C8001934F03435344F342D340A345A34383431
:1001D8005C346734143482345034E8347A340B3461
:1001E80060345E34313466343A34E734E234E93426
:1001F8003D34DA34F8340E340F3488341034A734EC
:10020800AB340A3460348B3477342F347A340C347A
:10021800393499346634FF345134C534D734923480
:100228009C340334E93482346C3440344B34C7345E
:1002380029344634C834DC347934FC34B234533489
:100248004B3477342E3421342F340F347D34B93481
:10025800CF345F34C734CE34323469347F34863493
:10026800173448346D342634BB346A34493438344E
:10027800273466342334033419342034D33408340F
:1002880013340034003400340034003400340034B3
:1002980000342000DD01DC01D901DA0120002E083C
:1002A80084002F08850012000319E2292E08840013
:1002B8002F0885000008B0003008DC000130AE07C8
:1002C8000030AF3D51305C02031C6C29DA01DA0AB8
:1002D800DD0182292E0884002F0885000008B0005F
:1002E8005D08A03E86008701300881000130AE0716
:1002F8000030AF3D0130B0003008DD075C085D021A
:1003080003188A2950305D02031C6E295A08031904
:10031800CE295030DC02DD015C085D020318A929F2
:100328002E0884002F0885000008B0005D08313EC3
:1003380086008701300881000130AE070030AF3DEC
:100348000130B0003008DD0790298C12DB015B0812
:10035800031DBA2944308331CA23813184310324EF
:1003680081312000B0003008DB00AB29A030B0009C
:100378003008F300503084311524813131302000A9
:10038800B0003008F3005C08843115248131200066
:100398008C16D829A030B0003008A300A401A5010C
:1003A8005C088331DE23813120008C195229A80191
:1003B800A90100308131E42181315229003008003F
:1003C8002000AD002030AA002A08E0002D08AA006D
:1003D8002A08E1002808AA002A08E2002908AA0039
:1003E8002A08E3006030AA002A08A3000830AB00FE
:1003F8002B08A4006030AC002C08A5000430833121
:10040800DE23813120006008AA002A082200A0000B
:1004180020006108AA002A082200A1002000620822
:10042800AA002A082200A20020006308AA002A08BD
:100438002200A30020006408AA002A082200A400C1
:1004480020006508AA002A082200A50020006608E6
:10045800AA002A082200A60020006708AA002A0885
:100468002200A700080084315624823122003C086B
:10047800860001308700403F2000AE00413FAF00BA
:1004880081314D218231003A031D372A20008C1218
:1004980011302000DE003A30890B502ADE0B502A3A
:1004A800000020008C1611302000DE003A30890B45
:1004B8005B2ADE0B5B2A000020008C121130200022
:1004C800DE003A30890B662ADE0B662A000020001F
:1004D8008C1611302000DE003A30890B712ADE0BB1
:1004E800712A000020008C1211302000DE003A3002
:1004F800890B7C2ADE0B7C2A000020008C16832ABC
:100508008431362482318331F12382312000DF01A6
:10051800DF0A02302200C5004530C400A930890B2B
:10052800932AC40B932AC50B932A003220008C16F9
:10053800B42A8231372282310030833182238231DA
:10054800023083312123823102302200C400440862
:10055800B200B42A83319D2382312200B201B20A4B
:1005680022003208003A03199D2A013A0319A02AE9
:10057800033A0319AE2AB22AB42AF9008830FA00DD
:100588001330FB00CD2A20008C160130FA0200300F
:10059800FB3B7A087B040319EF2A20008C124430B5
:1005A8008331CA238231843103248231F8007808E8
:1005B800FC007C080319C72A79080319ED2A770873
:1005C800F300FF39031D0030F40079088331B523A7
:1005D800823120008C167A087B04031DF52A00302E
:1005E80008007C0808002000AA003230A900290869
:1005F800E0002A08A9002908E1002308A900290821
:10060800E2002508A9002908E3002408A900290810
:10061800E4002608A9002908E5002708A9002908F8
:10062800E6002808A9002908E7006030A900290881
:10063800A00008308331652308002000AB00153086
:10064800A8002808E0002B08A8002808E10060306E
:10065800A8002808A3000230A9002908A4006030D7
:10066800AA002A08A50002308331DE232000600892
:10067800A80028082200A00020006108A800280877
:100688002200A10008002000A4002008031D502B10
:10069800532B84315C2483317C0803194D2B2000B3
:1006A8008C1224088331CA23833120002308F400E4
:1006B8002208F30021088331B52320008C16FC01A1
:1006C80008002000A2002203031D6E2B0130A100A8
:1006D8002108A2077C08031D752B84315C24833113
:1006E8006E2B20008C122008A1002108F30022089C
:1006F8008431152420008C16FC0108002000B0006D
:10070800A801A90100308131E42183312000A3012F
:100718000030A400A5000830AE002E08A600A701EE
:10072800A70A0830AF002F08A80030088231F72246
:10073800080020008C19B32BA801A90100308131D1
:10074800E42183312200221EB32B35302000AE0075
:100758002E08A50007308431272401300800003016
:100768000800F6000130F602760A03190800843101
:1007780003248331F5007308860074088700750820
:1007880081000130F3070030F43DB62BF200720807
:10079800240091002000911DCE2B24001108F100A7
:1007A8007108F2002200B4010130B402340A0319BE
:1007B8000800D82B2000A7002308A6002608A000C0
:1007C800270883316523833120002508A6002608E1
:1007D800F70024088231C122080024009512220063
:1007E8001D179D1224009413141315121514951037
:1007F8001511951121009115240095160800F20194
:1008080024009101141C062C1108F1007108F20053
:100818002200B4010130B402340A031D0E2C720800
:100828000800F5000130F502750A0319080073087D
:100838008600870101088331CA2384310130F4001E
:100848007408F307162C2000A700A0012708A600AB
:100858002608A1002508A2000130A30077308331C3
:100868004723080023008C01CC3021008C00223063
:1008780020008C008C140C108C1608003D343C347D
:1008880080340034073403340034F034FE0012009E
:100898001E00FE0B4B2C0034640080010131890BD3
:1008A800512C00342000A001A10184315C240800EF
:0A08B800F70100308231C122080070
:020000040001F9
:04000E00E4FFFFDF2D
:00000001FF
