:0400000080315028D3
:100008007E14803120007F08F3000B110130F607C1
:100018000030F73D761C132820000C14152820000A
:100028000C100830F2007208F400761C48288C1274
:1000380001308031B620803100308031B6208031E7
:1000480000308031B620803100308031B6208031D8
:100058008031D62080318031D62080318031D62041
:1000680080318031D62080318031D6208031803176
:10007800D62080318031D62080318031D620803121
:100088008031D62020008C16FF30F6050030F705A9
:100098007308FF007E10090080315228F601F7012D
:1000A800F8017E10200080315928CC3021008C00C6
:1000B80020008C168031A72080318031CD208031FE
:1000C80004302000A1003D30890B6828A10B682866
:1000D800003220008C1244308031982080318031E9
:1000E800C320803102308031982080310130803146
:1000F8009820803100308031982080310130803163
:1001080098208031C930803198208031C3308031C7
:100118009820803180308031982080318031C32010
:10012800803120008C1697282000A0002008240089
:1001380091002000911D9D2824001108F5007508E4
:100148002000A00008002400951222001D179D120F
:1001580024009413141315121510951015119511E8
:1001680095160800F1007108240091002000911DE7
:10017800BA2824001108F0007008F10008002400D3
:100188009101141CC5281108F50075082000A0006D
:100198000800C73021009500FF30200095008B161D
:1001A8008B17080024009101141CD8281108F000AE
:0601B8007008F1000800D0
:020000040001F9
:04000E00E4FFFFFF0D
:00000001FF
